:10000000B8C00000D1C00000CFC00000CDC00000CB
:10001000CBC00000C9C00000C7C00000C5C00000C0
:10002000C3C00000C1C00000BFC0000011C5000077
:10003000BBC00000B9C00000B7C00000B5C00000E0
:10004000B3C00000B1C00000AFC00000ADC00000F0
:10005000ABC00000A9C00000A7C00000A5C0000000
:10006000A3C00000A1C000009FC000009DC0000010
:100070009BC0000099C0000097C0000095C0000020
:1000800093C0000091C000008FC000008DC0000030
:100090008BC0000089C0000005010905A101150001
:1000A0002501350045017501951005091901291033
:1000B000810205012507463B017504950165140978
:1000C00039814265009501810126FF0046FF000944
:1000D000300931093209357508950481020600FF9F
:1000E0000920950181020A212695089102C012017A
:1000F0000002000000400D0F92000001010200010B
:100100000902290001010080FA090400000203002D
:1001100000000921110100012256000705020340D9
:10012000000507058103400005040309041C03487A
:10013000004F0052004900200043004F002E002CC9
:10014000004C00540044002E000000240350004FD7
:10015000004B004B0045004E00200043004F004E76
:1001600000540052004F004C004C0045005200006B
:10017000000011241FBECFEFD2E0DEBFCDBF11E0E3
:10018000A0E0B1E0ECECFEE002C005900D92AE3DC7
:10019000B107D9F711E0AEEDB1E001C01D92AE3F5D
:1001A000B107E1F7D0D190C62BCF089508950895F7
:1001B000E6E0F1E020E030E08081883141F02F5F1F
:1001C0003F4F339627343105B9F720E030E0C901BD
:1001D0000895CF93DF93EC0198E0FE01892F1192EF
:1001E0008A95E9F780E88B838C838D838E839A834D
:1001F000809100018B83809102018C8380910401A6
:100200008D838091DF019091E0011816190674F436
:10021000DE01E9EEF1E088E001900D928150E1F716
:100220008091DF019091E001019714C18091DE017E
:10023000882321F0823009F003C109C0B9DF90930F
:10024000E8018093E70182E08093DE01F9C08091AC
:10025000E3019091E40163E070E024D6FC01EA5FE1
:10026000FE4FE081EB3009F477C0EC3058F5E53013
:1002700009F45BC0E63098F4E23009F454C0E3308E
:1002800038F4EE2309F449C0E13009F0A3C047C0B7
:10029000E33009F44BC0E43009F09CC043C0E830BF
:1002A00009F44DC0E93038F4E63009F442C0E730D3
:1002B00009F090C041C0E93009F44BC0EA3009F0C0
:1002C00089C042C0E13109F474C0E23198F4EE30E3
:1002D00009F459C0EF3038F4EC3009F444C0ED3083
:1002E00009F078C04BC0EF3009F450C0E03109F09C
:1002F00071C05BC0E53109F460C0E63138F4E23129
:1003000009F44BC0E33109F065C04BC0E63109F494
:1003100058C0E73109F05EC058C01C825BC08FEF47
:100320008C8358C01C821B8255C01C828FEF8B832C
:1003300051C08FEF8C83F7CF8FEF8C83F8CF109263
:1003400003011092020146C01092010110920001B7
:1003500041C08FEF90E00DC08FEF90E090930101CE
:100360008093000137C080E890E090930101809372
:10037000000190930301809302012CC010920501AB
:100380001092040127C08FEF90E002C080E890E057
:1003900090930501809304011DC088819981846038
:1003A00017C088819981826013C088819981886093
:1003B0000FC08881998181600BC08881998180629A
:1003C00007C088819981926003C08881998190617A
:1003D000998388832091E5013091E6012F5F3F4F9B
:1003E0003093E6012093E501A091E301B091E4018F
:1003F000CD0163E070E056D5FC01EA5FFE4F8181DC
:1004000092818217930748F41196B093E401A09368
:10041000E3011092E6011092E5018091E3019091D1
:10042000E4018834910564F08091E7019091E8013E
:100430009093E4018093E3011092E6011092E501AC
:10044000A9EEB1E0FE0188E001900D928150E1F744
:1004500082E090E09093E0018093DF01DF91CF9103
:100460000895FF920F931F93DF93CF93CDB7DEB71D
:1004700028970FB6F894DEBF0FBECDBF8091F5016F
:100480008430B9F582E08093E9008091E80082FF32
:1004900014C08091E80085FF0BC08E010F5F1F4FD5
:1004A000C80167E070E040E050E05BD18823C1F70D
:1004B0008091E8008B778093E80081E08093E900E9
:1004C0008091E80080FF15C08E010F5F1F4FC801AB
:1004D00080DEF02E012F8F2D902F68E070E040E03D
:1004E00050E091D18823B9F78091E8008E7780930E
:1004F000E80028960FB6F894DEBF0FBECDBFCF91AF
:10050000DF911F910F91FF90089582E060EC42E32C
:10051000CCD181E061EC42E3C8C184B7877F84BF5E
:1005200088E10FB6F89480936000109260000FBECF
:1005300080E090E020E80FB6F8942093610080936B
:1005400061000FBE76C2E9DF78948BDF96D4FDCFD1
:10055000DA019330B1F0943028F4913041F09230C8
:1005600079F50AC0913211F1923251F524C0EEEEC4
:10057000F0E022E130E028C0E0E0F1E029E230E004
:1005800023C0813049F0813018F08230C9F40AC0AC
:10059000E9E2F1E0849103C0EDE2F1E08491282FDB
:1005A00030E012C0EBE4F1E08491F9CFE2E1F1E058
:1005B00029E030E009C0E8E9F0E026E530E004C0D9
:1005C000E0E0F0E020E030E0ED93FC93C901089515
:1005D0009C014091FC015091FD014617570718F40A
:1005E000F90190E03DC06115710511F0AB01F8CF44
:1005F0008091E8008E778093E80040E050E0F0CFF3
:100600008091F501882309F441C0853009F440C088
:100610008091E80083FD3EC08091E80082FD30C0FB
:100620008091E80080FF1CC08091F200282F30E00C
:1006300007C081918093F100415050402F5F3F4FA0
:100640004115510519F02034310598F390E020341C
:10065000310509F491E08091E8008E778093E800FD
:100660004115510569F6992359F60AC08091F501A3
:10067000882361F0853061F08091E80083FD0AC035
:100680008091E80082FFF2CF80E0089582E0089533
:1006900083E0089581E008959C014091FC01509110
:1006A000FD014617570718F4F90190E03EC06115A7
:1006B000710511F0AB01F8CF8091E8008E7780933F
:1006C000E80040E050E0F0CF8091F501882309F484
:1006D00042C0853009F441C08091E80083FD3FC0ED
:1006E0008091E80082FD31C08091E80080FF1DC04C
:1006F0008091F200282F30E008C084918093F100AF
:100700003196415050402F5F3F4F4115510519F030
:100710002034310590F390E02034310509F491E064
:100720008091E8008E778093E8004115510561F6CD
:10073000992351F60AC08091F501882361F0853034
:1007400061F08091E80083FD0AC08091E80082FF9B
:10075000F2CF80E0089582E0089583E0089581E07B
:100760000895BF92CF92DF92EF92FF920F931F9363
:10077000CF93DF93182F092F7B016A01EFD0B82E9A
:100780008823B1F5812F902F9C01E901C114D10478
:1007900039F0F60180819181E81AF90AC80FD91F52
:1007A00000E010E022C08091E80085FD16C0809135
:1007B000E8008B778093E80060D3C114D10449F03E
:1007C000F60180819181800F911F9183808385E064
:1007D00010C0C4D0882349F00CC08091F1008993E7
:1007E0000894E108F1080F5F1F4FE114F104D9F6F6
:1007F0008B2DDF91CF911F910F91FF90EF90DF90A4
:10080000CF90BF900895BF92CF92DF92EF92FF9268
:100810000F931F93CF93DF93182F092F7B016A014A
:100820009DD0B82E8823B1F5812F902F9C01E9012E
:10083000C114D10439F0F60180819181E81AF90AD6
:10084000C80FD91F00E010E022C08091E80085FDAC
:1008500016C08091E8008E778093E8000ED3C11413
:10086000D10449F0F60180819181800F911F91831D
:10087000808385E010C072D0882349F00CC0899134
:100880008093F1000894E108F1080F5F1F4FE11415
:10089000F104D9F68B2DDF91CF911F910F91FF902D
:1008A000EF90DF90CF90BF900895382F282F2EC063
:1008B000822F8F708093E900231721F4762F942FD5
:1008C00050E006C07091EC009091ED005091F00066
:1008D00091FF1BC08091EB008E7F8093EB00809195
:1008E000ED008D7F8093ED008091EB00816080931F
:1008F000EB007093EC009093ED005093F00080912A
:10090000EE0087FD02C080E008952F5F253080F261
:100910003F703093E90081E008958091F6018823CB
:100920009CF404C08091F5018823B9F08091E8001F
:1009300082FFF8CF8091E8008B778093E8000895DC
:100940008091F501882349F08091E80080FFF8CF7D
:100950008091E8008E778093E80008954091E4004C
:100960005091E50024E68091EC0080FF24C0809146
:10097000E80080FD1EC08091F501882311F482E01B
:100980000895853011F483E008958091EB0085FF90
:1009900002C081E008958091E4009091E500841701
:1009A000950709F3222311F484E008952150AC0146
:1009B000DACF80E008958091E80082FFDCCFF9CFA4
:1009C00041D043D08091D8008F778093D800809118
:1009D000D80080688093D8008091D8008F7D809364
:1009E000D80084E089BD86E089BD09B400FEFDCF52
:1009F0001092F5011092F1011092F3011092F201A0
:100A000080E060E042E351DF8091E1008E7F8093DF
:100A1000E1008091E20081608093E2008091E20039
:100A200088608093E2008091E0008E7F8093E000F8
:100A30000895E3E6F0E080818E7F808381E08093FB
:100A4000F401BECF1092E20008951092E1000895E3
:100A50001F920F920FB60F9211242F933F934F9333
:100A60005F936F937F938F939F93AF93BF93EF9316
:100A7000FF938091E10082FF0AC08091E20082FF33
:100A800006C08091E1008B7F8093E100F5D18091D9
:100A9000E10080FF17C08091E20080FF13C08091C9
:100AA000E2008E7F8093E2008091E200806180937B
:100AB000E2008091D80080628093D80019BC109227
:100AC000F50174DB8091E10084FF2FC08091E2008A
:100AD00084FF2BC084E089BD86E089BD09B400FE97
:100AE000FDCF8091D8008F7D8093D8008091E10068
:100AF0008F7E8093E1008091E2008F7E8093E20000
:100B00008091E20081608093E2008091F10188236E
:100B100011F084E007C08091E30087FD02C081E00E
:100B200001C083E08093F50140DB8091E10083FF09
:100B300022C08091E20083FF1EC08091E100877F88
:100B40008093E10082E08093F5011092F1018091A1
:100B5000E1008E7F8093E1008091E2008E7F8093A0
:100B6000E2008091E20080618093E20080E060E03A
:100B700042E39BDE81D1FF91EF91BF91AF919F91B5
:100B80008F917F916F915F914F913F912F910F9036
:100B90000FBE0F901F9018951F93DF93CF93CDB783
:100BA000DEB7AC970FB6F894DEBF0FBECDBFE6EF51
:100BB000F1E08091F100819321E0EE3FF207C9F767
:100BC000F6DA8091E80083FF3FC18091F601309111
:100BD000F701353009F48DC0363040F43130E1F1A1
:100BE000313070F0333009F02FC136C0383009F49D
:100BF000FDC0393009F40CC1363009F025C19CC064
:100C0000803821F0823809F01FC108C09091F201AC
:100C10008091F3018823B1F0926014C08091FA01B1
:100C20008F70853008F010C18093E9008091EB004F
:100C300090E025E0969587952A95E1F7982F917099
:100C40001092E9008091E800877F8093E8009093FC
:100C5000F1001092F100D5C0882319F0823009F01C
:100C6000F3C090E08F719070009721F0029709F027
:100C7000EBC00CC08091F801813009F0E5C0109202
:100C8000F301333081F58093F3012DC08091F80199
:100C9000882349F52091FA012F70822F81508430EA
:100CA00008F0D2C02093E9008091EB0080FF1BC0C8
:100CB000333021F48091EB00806213C08091EB000F
:100CC00080618093EB0081E090E002C0880F991F63
:100CD0002A95E2F78093EA001092EA008091EB00F7
:100CE00088608093EB001092E9008091E800877F94
:100CF0008BC0882309F0A8C01091F8011F7780915C
:100D0000E3008078812B8093E3008091E800877F67
:100D10008093E80002DE8091E80080FFFCCF8091A4
:100D2000E30080688093E300112311F482E001C0A6
:100D300083E08093F50188C08058823008F084C039
:100D40008091F8019091F90123E08C3D920709F020
:100D500033C083E08C838AE28B837FB7F894DE0113
:100D600015966EE040E050E011E2E62FF0E01093BF
:100D70005700849140FF03C082958F706F5F8F7022
:100D8000282F30E08A3018F0C901C79602C0C90187
:100D9000C0968D939D934F5F5F4F4431510529F766
:100DA0007FBF8091E800877F8093E800CE010396A3
:100DB0006AE270E00DDC14C06091FA017091FB01F1
:100DC000AE014F5F5F4FC4DBBC01009709F43CC02C
:100DD0008091E800877F8093E80089819A815CDCBC
:100DE0008091E8008B778093E8002EC0803861F511
:100DF0008091E800877F8093E8008091F1018093E3
:100E0000F1008091E8008E778093E80086DD1CC0B9
:100E10008823D1F49091F8019230B0F48091E800E9
:100E2000877F8093E8009093F10177DD8091F10155
:100E3000882331F48091E30087FD02C081E001C086
:100E400084E08093F50161DB8091E80083FF0AC0B4
:100E50008091E800877F8093E8008091EB008062BA
:100E60008093EB00AC960FB6F894DEBF0FBECDBFFB
:100E7000CF91DF911F91089508951F938091F501FF
:100E8000882371F01091E9008091EC001092E90044
:100E90008091E80083FF01C07FDE1F701093E9009E
:100EA0001F9108955527002480FF02C0060E571F8A
:100EB000660F771F6115710521F09695879500974C
:0C0EC00099F7952F802D0895F894FFCF2E
:100ECC008000800080001300001200001800001247
:100EDC000200192C01120200190A00120200190A50
:100EEC0000120200192C01120200191400125000F9
:100EFC00190A00120200190A00170500193C00011A
:100F0C00020019050003020019050003020019056F
:100F1C00000302001905000302001905000302007A
:100F2C0019050012020019050001500012020019E7
:100F3C000500010200190200010200190200010261
:100F4C0000190200010200190200120200190A0025
:100F5C000102001905000102001905001202001916
:100F6C000500120200190500000500190500120207
:100F7C0000190500000500190500120200190500F2
:100F8C0012020019050012020019050012020019C4
:0E0F9C000500170200193C00170200193C0066
:00000001FF
